:040000003AEF0EF0D5
:1000080000C015F09EA011D09E903C0ECF6EB00E91
:10001800CE6E0101AE4BAF2BAF51B11902E1B05119
:10002800AE1903E1AE6BAF6BAD8115C000F01100E6
:0A003800030E0D6E0D2EFED7120010
:0400420000001200A8
:0A004600F8DF8A88F6DF8A981200BE
:0E005000026A016A006A086A036A000E120062
:0E005E008A988A848A9633C283FFEEDF1200EE
:08006C000AAE029E000E120014
:100074000B840BAE45EF00F0010E036E026A016AB9
:0A008400006A0A360232FF0E120075
:10008E00FF0E956ED7DFD6DF8A848A988A868A8895
:10009E00CCDF83CF33F28A988A96CCDFCBDF956A9A
:0600AE0033C200F0120055
:1000B4007F0E02013315016E01C033F201AC03D08F
:0C00C4008A808A9202D08A908A82120000
:1000D000F250026EF29E0500FF6A0150FE6E005063
:0800E000FD6E02BEF28E12005B
:1000E8007F0E02013315006E00C033F28A948A969F
:1000F800BF0E001600C033F2008C00C033F200C0FF
:0601080083FF9DDF1200E1
:10010E008A948A96B80E02013311836E95DF12001F
:10011E000B820BAE99EF00F003680268016800686D
:08012E000A360232FF0E120036
:100136000B6A0A6A096A00500402F4CF09F0F3CF89
:1001460008F001500502F4CF0BF0F3CF0AF000508F
:100156000502F3500926F4500A22E86A0B220150E0
:100166000402F3500926F4500A22E86A0B2208C05A
:1001760000F009C001F00AC002F00BC003F0120043
:10018600086A080E0C6E003408360450085ED8B0B3
:0E01960002D00826D89000360C2EF5D71200A5
:1001A40025C2C9F126C2CAF127C2CBF1020E02014F
:1001B4002525F66E000E2621F76E000E2721F86E17
:1001C4000900F5CF04F0030E2525F66E000E262156
:1001D400F76E000E2721F86E0900F5CF03F003C077
:1001E40001F0006A045000240101E96F000E0120AF
:1001F400EA6F040E02012525F66E000E2621F76E25
:10020400000E2721F86E0900F5CF04F0050E252510
:10021400F66E000E2621F76E000E2721F86E0900F7
:10022400F5CF03F003C001F0006A0450002401017B
:10023400EB6F000E0120EC6F060E02012525F66E11
:10024400000E2621F76E000E2721F86E0900F5CF67
:10025400CDF1000E0101CE6F28C2C5F1000EC66FAC
:0E02640029C2CCF1010E3B6FED6BEE6B120068
:10027200086A096A000E07620364BEEF01F00250C9
:1002820006180A6E075003267E0ED8A04FEF01F023
:10029200035ED8B0C2EF01F053EF01F0035ED8A0C5
:1002A200C6EF01F0028E068E02C00EF001C00BF006
:1002B20000C00DF000500402F4CF0CF00150050212
:1002C200F4CF00F0F3CF08F00402F3500C26F45000
:1002D2000822000E00220D500502F3500C26F450A5
:1002E2000822000E002202500402F3500826F450A5
:1002F200002202500502016A000E0122F35000267C
:10030200F45001220D500602F3500826F450002248
:10031200026A000E012202220B500602F35000264E
:10032200F4500122000E02220E500602F350012662
:10033200F450022202BEA6EF01F008360036013662
:1003420002360306D8B4C6EF01F0B9EF01F0D88047
:10035200800E08640030000E002201220222D8A082
:10036200B9EF01F0023201320032034AC2EF01F06A
:100372000AAE029E000EC8EF01F0010E68DEC8EF61
:1003820001F0020ECBDEC8EF01F0040E72DE1200A5
:10039200000E0201255D0AE325517F0807E3000EE6
:1003A200265D04E326513F0801E301D04AD025C26D
:1003B20033F27FDE26C233F23333339F3333339F3C
:1003C2003333339FA3DE25C233F28DDE5FDE00C0FE
:1003D2002AF25CDE00C02AF226C233F23333339FA4
:1003E2003333339F3333339F91DE25C233F27BDEC7
:1003F200070E2615006E00C028F200C001F0010EA3
:10040200006E015004E000360090FF0FFBD700C0E1
:1004120028F2001C296F09D029512A170FD0285120
:100422002A130CD028512A1B09D02751000AF4E0C4
:100432002751010AF4E02751020AF4E02AC233F2FA
:040442000DDE1200B9
:10044600CF0E0201316F010E326F000E006E2A517F
:10045600005C02E12951000843E2D9C1E1FFDAC19B
:10046600E2FF25C2E6FF26C2E6FF27C2E6FF28C254
:10047600E6FF29C2E6FF2AC2E6FF2D0EE66E020E51
:10048600E66ED7C100F0D8C101F01FDE00C02FF222
:1004960001C030F202012B6B2C6B2E512C5D02E158
:1004A6002D512B5D11E22FC2E9FF30C2EAFF31C2A6
:1004B600E1FF32C2E2FFEECFE6FF314B322B2F4B8C
:1004C600302B2B4B2C2BE9D72D51295F2E512A5B34
:1004D6002D5125272E512623000E27232823B5D755
:0204E600120002
:1004E800086A096A100E0C6E013408360936045081
:1004F800085E0550D8A0053C095ED8B007D0045066
:1005080008260550D8B0053C0926D8900036013693
:060518000C2EEAD71200D0
:10051E0002012751070801E28CD00101E3510201CB
:10052E00255D006EE4C101F0000E0156C8C104F055
:10053E00000E056EF9DD00C02DF201C02EF226C2AE
:10054E0033F2CBDD27C233F2DBDD296B0101C8515B
:10055E000201295D4FE226517F0801E26AD026C2D0
:10056E0033F2A1DD27C233F2CBDD26C233F2B5DD85
:10057E0087DD00C02AF284DD00C02AF226C233F2E3
:10058E0092DD27C233F2BCDD26C233F2A6DD2D5139
:10059E000101E025F66E02012E510101E121F76EF7
:1005AE00000E02012EBFFF0E0101E221F86E0900BE
:1005BE00F5CF00F000C02BF202012D4B2E2B001CAC
:1005CE002C6F09D02CC22AF20FD02BC22AF20CD0DB
:1005DE002B512A1B09D02851000AF4E02851010A98
:1005EE00F4E02851020AF4E02AC233F231DD262B60
:1005FE00292BACD726C233F256DD27C233F280DD6B
:10060E0026C233F26ADDFF0E2B6F2C6B0CD02BC281
:10061E002AF22BC233F21CDD0CD02CC22AF22CC2D1
:10062E0033F216DD06D02851000AF1E02851010AF6
:04063E00F4E01200D2
:100642000A6A0350D8A40A800750D8A40A820A5022
:10065200D8B484EF03F0030AD8B43DEF03F00AB034
:1006620038EF03F006AE82EF03F080EF03F002AE44
:1006720080EF03F082EF03F00250800B0A6E029EBD
:100682000650800B069E0A18D8B44EEF03F00A50AB
:10069200D8B480EF03F082EF03F00750035CD8B4C4
:1006A20058EF03F0D8A074EF03F07AEF03F006508E
:1006B200025CD8B462EF03F0D8A074EF03F07AEFD3
:1006C20003F00550015CD8B46CEF03F0D8A074EFCE
:1006D20003F07AEF03F00450005CD8B484EF03F027
:1006E200D8B07AEF03F00A52D8B482EF03F080EF69
:1006F20003F00A52D8B480EF03F082EF03F0D880FF
:0E0702001200D8901200D880D8841200120085
:100710000C6A0E6A0250D8A4A1EF03F001C002F0E7
:1007200000C001F0006A0E860250D8A4A1EF03F0C9
:1007300001C002F0016A0E960E880250D8B4B3EFE1
:1007400003F00E50035ED8A4D8A0B8EF03F0D89001
:1007500002BEBDEF03F0003601360236032EA8EFCD
:1007600003F0B8EF03F0010E0C6E72DCC0EF03F083
:10077000020E0C6E7FDCC0EF03F0040E0C6E76DC14
:02078000120065
:080782000B6A0B86FF0E12004A
:10078A0025C204F026C205F004C002F005C003F039
:10079A00044A052A27C200F028C201F00201274BA9
:1007AA00282B00C0E9FF01C0EAFF02C0E1FF03C035
:1007BA00E2FFEECFE6FF02C0E9FF03C0EAFFEE5216
:0E07CA0001E0E2D725C200F026C201F01200C5
:0A07D800070E0D6E0D2EFED7120065
:1007E200830EC2160BC200F0003600900036009055
:1007F2000050C212F0DFC282C2A201D0FDD7C4CF24
:0E08020001F0006AC3500012000E0112120035
:100810000201136B146B156B01013B51000A0DE1D2
:10082000AA0E0201256F1F0E266F000E276F010E04
:10083000286F296BB7DC010E3B6F000E006EEA518A
:10084000005C03E1E95102010B5D01E2FDD0000E05
:100850000101EC5D04E102010B510101EB5D01E2DC
:10086000F3D0E95102010B5D016EEAC102F0000E06
:10087000025601C003F002C004F0033603900436B0
:10088000033603900436080E0101C925006E000EE0
:10089000CA21016E000ECB21026E000E056E0050C3
:1008A0000326015004220250052203C0F6FF04C0B3
:1008B000F7FF05C0F8FF0900F5CF13F2010E03247E
:1008C000F66E000E0420F76E000E0520F86E09008B
:1008D000F5CF00F000C006F0000E076E086E096E3E
:1008E000020E0324F66E000E0420F76E000E0520A3
:1008F000F86E0900F5CF03F003C001F0006A000EA6
:10090000026E036E06500026075001220850022294
:1009100009500322C95100240201106F0101CA517C
:1009200001200201116F0101CB5102200201126F5F
:100930000101CC51000A45E1F1C10EF202010D6B3B
:10094000000E006E0101CE51005C03E1CD510201A9
:100950000D5D2EE20201EFC114F20F6B0C6B13510F
:100960000C5D23E20F51000A10E110C2F6FF11C224
:10097000F7FF12C2F8FF0900F5CF15F2010E10279C
:10098000000E11231223010E0F6F0F511515006E6B
:1009900007E014C225F20EC226F2C5C127F2F9DC27
:1009A000142B0F370F910C2BDAD70E2B0D2BC8D72A
:1009B00002011451010F0101EF6FF06B000EF023E3
:1009C00043D0EFC10EF202010D6B000E006E01016B
:1009D000CE51005C03E1CD5102010D5D2EE202011A
:1009E000F1C114F20F6B0C6B13510C5D23E20F512C
:1009F000000A10E110C2F6FF11C2F7FF12C2F8FFA1
:100A00000900F5CF15F2010E1027000E1123122355
:100A1000010E0F6F0F511515006E07E00EC225F283
:100A200014C226F2C5C127F2B4DC14070F370F91A8
:100A30000C2BDAD70E2B0D2BC8D7020114050101A0
:0A0A4000F16FF26B000EF25B120082
:100A4A000050086E0150006E016A026A036A0B6A5E
:100A5A000C6A960E036E0A6A00C001F008C000F024
:080A6A00086A026A50DE120066
:100A72000201206B216B226B236B0101EA510201FF
:100A82000C5D04E10101E95102010B5D01E2E6D1D5
:100A92000C510101EC5D04E102010B510101EB5D1E
:100AA20001E2DCD1E95102010B5D036E0101EA5161
:100AB20002010C59046E03C000F004C001F00036BC
:100AC20000900136003600900136080E0101DB2548
:100AD2000201256F000E0101DC210201266F000ECA
:100AE2000101DD210201276F000E0101DE21020159
:100AF200286F0050252701502623000E2723282384
:100B0200040E296F000E2A6F9DDCCF0E1E6F010EA0
:100B12001F6F1EC2E9FF1FC2EAFFEECF24F224C2FA
:100B220020F2010E1E25E96E000E1F21EA6EEECFA5
:100B320004F0000E056E066E076E020E1E25E96EAB
:100B4200000E1F21EA6EEECF03F003C001F0006A2F
:100B5200000E026E036E045000260550012206505C
:100B620002220750032200500101DB250201126F0D
:100B720001500101DC210201136F02500101DD214C
:100B82000201146F03500101DE210201156F24C21C
:100B920000F00032009E0032009E0032009E000EE5
:100BA200016ECDC104F0CEC105F09BEC00F000C097
:100BB20018F201C019F2070E2415006E08E00101B7
:100BC200CD51020118270101CE510201192318C289
:100BD2001CF219C21DF2D9C1E1FFDAC1E2FF12C251
:100BE200E6FF13C2E6FF14C2E6FF15C2E6FF18C213
:100BF200E6FF19C2E6FF160EE66E020EE66ED7C1DA
:100C020000F0D8C101F068EC00F000C01EF201C093
:100C12001FF202011651122717511323000E14233B
:100C220015231651185F1751195B1A6B1B6B0101C3
:100C3200CC51000AD8A488D0F1C10FF2F2C110F24F
:100C420002010E6B000E006E0101CE51005C03E149
:100C5200CD5102010E5D6DE20201EFC121F2F0C140
:100C620022F2116B0D6B20510D5D5FE21151000AF2
:100C72004AE11A4B1B2B1D51175D02E11C51165DF7
:100C820038E21B51175D02E11A51165D32E2010E84
:100C92001A6F000E1B6FD9C1E1FFDAC1E2FF12C267
:100CA200E6FF13C2E6FF14C2E6FF15C2E6FF18C252
:100CB200E6FF19C2E6FF160EE66E020EE66ED7C119
:100CC20000F0D8C101F068EC00F000C01EF201C0D3
:100CD2001FF218C21CF219C21DF20201165112278C
:100CE20017511323000E142315231651185F1751A1
:100CF200195B1EC2E9FF1FC2EAFFEECF23F21E4BB1
:100D02001F2B010E116F11512315006E08E021C235
:100D120025F20FC226F2C5C127F2C9EC01F0214B20
:100D2200222B113711910D2B9ED70F4B102B0E2B0F
:100D320089D70201010E21250101EF6F000E020188
:100D420022210101F06F8AD0EFC10FF2F0C110F23F
:100D520002010E6B000E006E0101CE51005C03E138
:100D6200CD5102010E5DD8B06FD00201F1C121F266
:100D7200F2C122F2116B0D6B20510D5D61E2115136
:100D8200000A4AE11A4B1B2B1D51175D02E11C514F
:100D9200165D38E21B51175D02E11A51165D32E20F
:100DA200010E1A6F000E1B6FD9C1E1FFDAC1E2FF1B
:100DB20012C2E6FF13C2E6FF14C2E6FF15C2E6FF47
:100DC20018C2E6FF19C2E6FF160EE66E020EE66EC6
:100DD200D7C100F0D8C101F068EC00F000C01EF2EB
:100DE20001C01FF218C21CF219C21DF202011651F3
:100DF200122717511323000E142315231651185FBF
:100E02001751195B1EC2E9FF1FC2EAFFEECF23F2A0
:100E12001E4B1F2B010E116F11512315006E08E09E
:100E22000FC225F221C226F2C5C127F2C9EC01F098
:100E3200010E215F000E225B113711910D2B9CD701
:100E42000F4B102B0E2B86D70201010E215D0101E3
:0E0E5200F16F000E020122590101F26F120031
:100E60000BC2EFF10CC2F0F10DC2F1F10EC2F2F1C2
:020E700012006E
:0E0E7200A50E0D6E0D2EFED700000000120022
:100E80000450000A12E10550000A0FE10650000A62
:100E90000CE10750000A09E1FF0E006EFF0E016E23
:100EA0007F0E026EFF0E036EA8D0086A096A075013
:100EB000D8B4EBEF07F00350D8B4F0EF07F00250CE
:100EC00006180A6E028E068E0E6A02C008F001C075
:100ED0000CF000C00DF004500D5E0550D8A0053C8C
:100EE0000C5E0650D8A0063C085E086A0C6A0D6AC3
:100EF000D8A082EF07F0D8900232013200320832D7
:100F0000010E0E6E0750035ED8A08FEF07F07E0E25
:100F10000E240326D8B0F5EF07F095EF07F07E0E0C
:100F20000E240326D8A0FAEF07F0180E0B6E0D362C
:100F30000C3608360036013602360E360450005E96
:100F40000550D8A0053C015E0650D8A0063C025EC4
:100F500006340E120EA0B0EF07F00D80BBEF07F0C5
:100F6000045000260550D8B0053C01260650D8B0E4
:100F7000062802260D900B2E97EF07F0E1EF07F001
:100F8000D8900036013602360E360450005E055009
:100F9000D8A0053C015E0650D8A0063C025E06348F
:100FA0000E10010B0D26D8B00C2AD8B4082AD8A4EC
:100FB000E1EF07F008320C320D32032AD8B4F5EF16
:100FC00007F00AAE089E0850026E0C50016E0D50DC
:100FD000006EFDEF07F0010EC1EC03F0FDEF07F02E
:100FE000020E28EC00F0FDEF07F0040E8FEC00F08D
:0C0FF000FDEF07F0080E3AEC00F01200D4
:100FFC0002010F6B050E0F5D0AE20F510D25E16E1C
:10100C00000E0E21E26E200EE66E0F2BF3D70F5161
:10101C000D25E16E000E0E21E26EE66A0F070F51F0
:10102C000D25106F000E0E21116F0A0E046E000EAE
:10103C00056E0BC200F00CC201F074EC02F008C09B
:10104C0000F009C001F0300E002610C2E1FF11C201
:10105C00E2FF00C0E6FF0A0E046E000E056E0BC226
:10106C0000F00CC201F074EC02F000C00BF201C0F5
:10107C000CF2000E011802E1000E001801E102D082
:06108C000F07CDD7120092
:101092000201106B0101C751000A0EE1050EC86F73
:1010A200070EDF6F5D0EE06F290EE16F000EE26F3B
:1010B200200EE36F000EE46F020110510B25E96E62
:1010C200000E0C21EA6EEE5219E010510B25E96E6A
:1010D200000E0C21EA6EEECF25F20DC226F20EC2F0
:1010E20027F20FC228F28FEC02F00101C851010F62
:0E10F200006E005002010D27102BDED71200F9
:101100000201176B186B0BC213F20CC214F20DC262
:1011100015F20EC216F21651FF0A08E11551FF0A28
:1011200005E11451FF0A02E11351FF0A0DE10FC25C
:1011300025F210C226F2160E276F010E286FC5EC9D
:1011400003F0030E006EEDD1010E116F15AF0ED03E
:10115000800E1519006E00C015F2112B0FC2E1FFB1
:1011600010C2E2FF2D0EE66E0F4B102B000E006E2C
:10117000161908E10050151905E10050141902E193
:101180001351000A0CE10FC225F210C226F21A0E0A
:10119000276F010E286FC5EC03F0006AC2D116510B
:1011A000FF0A08E11551000A05E11451000A02E1A5
:1011B0001351000A0DE10FC225F210C226F21C0ED7
:1011C000276F010E286FC5EC03F011C200F0A9D102
:1011D000000E046E000E056E000E066E7F0E076E8A
:1011E00013C200F014C201F015C202F016C203F0DF
:1011F00021EC03F0010ED8B0000E006E00521CE08E
:1012000013C200F014C201F015C202F016C203F0BE
:10121000000E046E000E056E200E066E820E076E26
:1012200039EC01F000C013F201C014F202C015F253
:1012300003C016F21807CCD7000E046E000E056E20
:10124000200E066E820E076E13C200F014C201F06B
:1012500015C202F016C203F021EC03F0000ED8B064
:10126000010E006E00521CE013C200F014C201F027
:1012700015C202F016C203F0CD0E046ECC0E056E40
:101280004C0E066E7B0E076E39EC01F000C013F2B7
:1012900001C014F202C015F203C016F2182BCCD70D
:1012A000FF0E1315086EFF0E1415096E7F0E15152F
:1012B0000A6E000E16150B6E08C004F009C005F08A
:1012C0000AC006F00BC007F0043604900536063657
:1012D0000736000E1315006E000E1415016E000E79
:1012E0001515026EFF0E1615036E00C013F201C035
:1012F00014F202C015F203C016F204501311006E6E
:1013000005501411016E06501511026E075016118A
:10131000036E00C013F201C014F202C015F203C044
:1013200016F27F0E165D006E00C012F2010E166FEF
:1013300000C004F013C200F014C201F015C202F0A4
:1013400016C203F0045007E0003600900136023662
:101350000336FF0FF8D700C013F201C014F202C029
:1013600015F203C016F20FC2E1FF10C2E2FF1651E0
:10137000300FE66E0F4B102B800E1819006E800E8A
:10138000010A005C08E3800E060A006E800E181940
:10139000005C01E30AD00FC2E1FF10C2E2FF2E0E93
:1013A000E66E0F4B102B010E176F060E126F1251C7
:1013B000000A54E0166B13C200F014C201F015C20B
:1013C00002F016C203F000360090013602360336F2
:1013D00000360090013602360336135100261451B0
:1013E0000122155102221651032200C013F201C03E
:1013F00014F202C015F203C016F213C200F014C2B8
:1014000001F015C202F016C203F00036009001365A
:101410000236033600C013F201C014F202C015F206
:1014200003C016F20FC2E1FF10C2E2FF1651300FE7
:10143000E66E0F4B102B1751000A0EE118071851DA
:10144000000A0AE10FC2E1FF10C2E2FF2E0EE66EB3
:101450000F4B102B010E176F1207A9D7FF0E0F2588
:10146000E96EFF0E1021EA6EEE50300A05E1010E22
:101470000F5F000E105BF2D7FF0E0F25E96EFF0E17
:101480001021EA6EEE502E0A04E1010E0F5F000EED
:10149000105B1851000A3FE00FC2E1FF10C2E2FFEB
:1014A000650EE66E0F4B102B800E1819006E800E25
:1014B000000A005C0BE20FC2E1FF10C2E2FF2D0E3A
:1014C000E66E0F4B102B18510008186F18C212F25D
:1014D000185109080FE20A0E046E12C200F0C3ECA4
:1014E00000F00FC2E1FF10C2E2FF0050300FE66EC5
:1014F0000F4B102B0A0E046E12C200F0C3EC00F06A
:1015000008C000F00FC2E1FF10C2E2FF0050300F30
:10151000E66E0F4B102B0FC2E1FF10C2E2FFE66A2E
:04152000006A12004B
:101524008A908A820201016B0151070810E301C20B
:1015340033F287EC00F0006B00513F0806E3FFC173
:1015440033F22FEC00F0002BF7D7012BEDD78A9262
:101554008A80016B0151070810E301C233F287EC62
:1015640000F0006B00513F0806E3FFC133F22FEC9B
:0C15740000F0002BF7D7012BEDD7120080
:101580000101C76BED6BEE6B939A939893949396CE
:10159000939093928A9A956A8A948A968A908A827C
:1015A0008A8A3F0E836E23EC00F0C00E836E23EC1C
:1015B00000F08A808A923F0E836E23EC00F0C00E0A
:0815C000836E23EC00F0120021
:1015C8000201006B046B056B005107084DE3336B98
:1015D8005AEC00F000C233F287EC00F0336B74EC85
:1015E80000F00101FF6BFF513F0814E302010451B1
:1015F8000125F66E05510221F76E000E0321F86EE3
:101608000900F5CF33F22FEC00F0044B052B010154
:10161800FF2BE9D7400E0201336F5AEC00F000C2ED
:1016280033F287EC00F0400E336F74EC00F0400E9C
:101638000101FF6FFF517F0814E3020104510125E6
:10164800F66E05510221F76E000E0321F86E0900AF
:10165800F5CF33F22FEC00F0044B052B0101FF2BE3
:0A166800E9D70201002BB0D71200F1
:101672000201006B03C201F0010E006E015004E092
:1016820000360090FF0FFBD700C0FFF101C2E9FF57
:1016920002C2EAFF0050EE14016E0152010ED8A4FC
:1016A200000E006E0551001A1CE00451000806E20B
:1016B20039EC07F039EC07F00407F7D701C2E9FF6C
:1016C20002C2EAFF0101FF51EE14016E0152010E46
:1016D200D8A4000E006E02010551001A02E0FF0EAE
:0816E200006F00C200F01200CD
:1016EA000201076B086B01C209F202C20AF2800EFC
:1016FA000219006E800E005C02E1000E015D0BE231
:10170A00010E076F000E086F01510008096F02C22F
:10171A000AF2000E0A5709C20BF20AC20CF203C2FD
:10172A000DF204C20EF265DC060E056F000E066F9E
:10173A00000E006E0651005C02E10551000819E234
:10174A0005510325E16E06510421E26E010E055D85
:10175A00006E000E0659016E00500325E96E015015
:10176A000421EA6EEECFE6FF010E055F000E065B6E
:10177A00DFD703C2E1FF04C2E2FF200EE66E075183
:10178A0008111AE0056B066B05510325E96E06512F
:10179A000421EA6EEE50200A03E1054B062BF4D72A
:1017AA00010E055F000E065B05510325E16E065129
:0A17BA000421E26E2D0EE66E12000F
:1017C40002010B6BF1EC03F000C0B0F001C0B1F00A
:1017D400050E046E000E056E9BEC00F025EC05F082
:1017E4000A0E046ED70E056E230E066E820E076E69
:1017F40040EC07F000C0C1F101C0C2F102C0C3F166
:1018040003C0C4F100C00BF201C00CF202C00DF21F
:1018140003C00EF2B20E02010F6F010E106F6EDCE8
:101824000101B86BB20E02010B6F010E0C6F2E0E8C
:101834000D6F020E0E6F010E0F6F29DC820E0C6EFF
:10184400DD0E0D6E0D2EFED70C2EFCD70000000011
:02185400120080
:10185600000E0201045D02E1800E035D01E341D04A
:10186600000E065D02E1400E055D01E33AD0076B0E
:10187600086B03C20BF204C20CF205C20DF206C2DB
:101886000EF230EC07F007510125E96E08510221EE
:10189600EA6EEE5226E00101ED51EE1113E002016F
:1018A60007510125E96E08510221EA6EEECF0BF2CF
:1018B600000E0C6F000E0C6F39EC05F00201074BA1
:1018C600082B0ED0020107510125E96E08510221AD
:1018D600EA6EEECF0BF208EC04F00201074B082B80
:0418E600D2D7120043
:1018EA00E20E0101E56F070EE66F0B0EE76F020EBF
:0E18FA00E86FC26A070EC012C08EC2801200D4
:101908000101FF6B0BDE5E0E0B6F010E0C6F0D6B92
:101918000E6B010E0F6F49EC08F0730E0B6F010E82
:101928000C6F0D6B020E0E6F010E0F6F49EC08F075
:10193800430E0B6F010E0C6F0D6B040E0E6F010E34
:101948000F6F49EC08F04F0E0B6F010E0C6F0D6B0B
:0E195800060E0E6F010E0F6F49EC08F0120024
:101966000E0EC16E070EB46EFF0E806EFF0E926EE7
:10197600B00E826EB00E946E969096929694829069
:101986008292B0DF0001B06BB16BF7DD030E0B6E18
:101996008A0E0C6E550E0D6E0D2EFED70C2EFCD734
:0E19A6000B2EFAD700000000FF6BB9DD120017
:1019B4005D0E0201016F250E026F000E036F02DE41
:1019C4001A0E0B6E5E0E0C6E6E0E0D6E0D2EFED785
:0C19D4000C2EFCD70B2EFAD700001200DE
:1019E0000900F5CFE6FF0006FBE10106F9E1120070
:0E19F0000101FAB102D0849201D0848212006B
:1019FE000101FF6B90DD9D0E0B6F010E0C6F120E31
:101A0E000D6F030E0E6F010E0F6F49EC08F08290F2
:041A1E0082821200AE
:101A2200110ECD6E9E903C0ECF6EB00ECE6E9D808E
:101A3200C00EF26E0101AE6BAF6BAD91F3C100F05F
:101A4200F4C101F0580E046E020E056E9BEC00F01C
:101A520000C0B0F101C0B1F14D0E02010B6F000EDA
:101A62000C6F0D0E0D6F010E0E6F010E0F6F49EC14
:101A720008F0140E016F010E026F680E036F000E64
:101A8200046F040E056F000E066FE4DE200E0B6F6E
:101A9200010E0C6F130E0D6F040E0E6F010E0F6F01
:101AA20049EC08F0300E0B6F010E0C6F130E0D6F28
:101AB200050E0E6F010E0F6F49EC08F082DE580E14
:101AC200046E020E056EAEC100F0AFC101F074ECFF
:101AD20002F000500101F35D0201016F01500101AA
:101AE200F4590201026FFC0E036F010E046FFCDD5C
:101AF200FC0E0B6F010E0C6F0C0E0D6F050E0E6FB0
:101B0200010E0F6F49EC08F0030E0B6E8A0E0C6E7D
:101B1200550E0D6E0D2EFED70C2EFCD70B2EFAD7BE
:0C1B2200000000000101ADA1C9D71200B5
:0E1B2E000101FAB102D0849401D08484120027
:101B3C000101FAB102D0849001D08480FA51FB11DA
:101B4C0026E0FF6BE9DC930E0B6F010E0C6F240E7D
:101B5C000D6F020E0E6F010E0F6F49EC08F03C0E6C
:101B6C000B6F010E0C6F240E0D6F030E0E6F010E1A
:101B7C000F6F49EC08F0A60E0B6F000E0C6F240EC5
:101B8C000D6F040E0E6F010E0F6F49EC08F0120072
:101B9C000101FA6BFB6B800E0201016F0F0E026FDD
:101BAC00010E036F010E046F056B5DDD005209E041
:101BBC00010E0101FA6F000EFB6F0F0EF36F000E9A
:101BCC00F46F800E0201016F0F0E026F020E036F95
:101BDC00010E046F056B47DD005209E0010E010197
:101BEC00FA6F000EFB6F140EF36F000EF46F800E85
:101BFC000201016F0F0E026F030E036F010E046FD3
:101C0C00056B31DD005209E0010E0101FA6F000E87
:101C1C00FB6F2D0EF36F000EF46F820E0C6EDD0E4B
:101C2C000D6E01010D2EFDD70C2EFBD70000000010
:0E1C3C00000EFB1902E1010EFA19ADE11200D3
:061C4A008290829212005C
:101C50000101FF6B67DC830E0B6F010E0C6F120E20
:101C60000D6F030E0E6F010E0F6F49EC08F08280AE
:041C7000829212004A
:101C74006AEC16F076DE9CDE45DE8EDF010EFA6F2E
:101C8400000EFB6F59DF80A801D0FDD70101FA6B6C
:101C9400FB6B52DFDBDF82A801D0FDD7D4DF01016B
:101CA400FF6B3EDC850E0B6F000E0C6F0D6B020E8E
:101CB4000E6F010E0F6F49EC08F0990E0B6F000EBA
:101CC4000C6F0D6B030E0E6F010E0F6F49EC08F0D5
:101CD400DC0E0B6F000E0C6F0D6B040E0E6F010EFD
:101CE4000F6F49EC08F0EF0E0B6F000E0C6F0D6BCD
:101CF400070E0E6F010E0F6F49EC08F081AE01D094
:101D0400FDD77BDE82AA01D0FDD79DDF0101FF6BE9
:101D140007DC010E0101FA6F000EFB6F67DE010E96
:101D2400FA6F000EFB6F01DF050E02010B6F010E4F
:101D34000C6F0D6B070E0E6F010E0F6F49EC08F060
:101D4400B20E0B6F000E0C6F0D0E0D6F010E0E6FA9
:101D5400010E0F6F49EC08F0C40E016F000E026F04
:101D6400680E036F000E046F040E056F000E066FFD
:101D740070DD26DD1A0E0B6E5E0E0C6E6E0E0D6E91
:101D84000D2EFED70C2EFCD70B2EFAD70000C1C1A6
:101D940004F0C2C105F0C3C106F0C4C107F0000ECF
:101DA400006E000E016E720E026E850E036E21EC43
:101DB40003F0000ED8B0010E006E0052DAE101010A
:101DC400FA6BFB6B13DEC60E02010B6F000E0C6F79
:101DD4000D6B070E0E6F010E0F6F49EC08F0F3C187
:101DE400FAF1F4C1FBF11BDEADB101D0FDD7010E58
:101DF400FA6F000EFB6FFADDFA6BFB6B96DEFF6B7E
:101E040092EC0AF0260E0B6F000E0C6F0D6B070E92
:101E14000E6F010E0F6F49EC08F03B0E0B6F000EB6
:101E24000C6F0D0E0D6F010E0E6F010E0F6F49EC4E
:101E340008F0160E016F000E026F680E036F000E9D
:101E4400046F040E056F000E066F03DDB9DC1A0E75
:101E54000B6E5E0E0C6E6E0E0D6E0D2EFED70C2EDE
:101E6400FCD70B2EFAD70000C1C104F0C2C105F0A3
:101E7400C3C106F0C4C107F0000E006E000E016E6F
:101E8400700E026E830E036E21EC03F0010ED8B0C7
:101E9400000E006E0052DAE10101FA6BFB6BA6DD65
:101EA400D5DE82A801D0FDD7CEDE0101FF6B92EC16
:101EB4000AF0180E0B6F000E0C6F2E0E0D6F020E33
:101EC4000E6F010E0F6F49EC08F01F0E0B6F000E22
:101ED4000C6F2E0E0D6F040E0E6F010E0F6F49EC7A
:101EE40008F03C0E0101F56F000EF66F800E006ED7
:101EF400800EF619005C02E1F55100082BE2060E93
:101F04000B6E130E0C6EAD0E0D6E0D2EFED70C2E39
:101F1400FCD70B2EFAD700000000F5C101F2F6C180
:101F240002F2F70E0201036F010E046F75EC0BF061
:101F3400F70E0B6F010E0C6F160E0D6F040E0E6F65
:101F4400010E0F6F49EC08F0010E0101F55F000E60
:101F5400F65BCCD7FF6B92EC0AF05F0E0B6F000EB2
:101F64000C6F120E0D6F020E0E6F010E0F6F49EC07
:101F740008F06E0E0B6F000E0C6F120E0D6F030E39
:101F84000E6F010E0F6F49EC08F0780E0B6F000E08
:101F94000C6F120E0D6F040E0E6F010E0F6F49ECD5
:061FA40008F0FFD7FFD793
:102CD40010EE16F0970E006E020E016E3D0EF66EAB
:0E2CE4002B0EF76E000EF86EF0EC0CF01200E6
:101FAA00000020007F000B0001880100019301005E
:101FBA00039E010007A9010005B4010009BF010041
:101FCA0006D5010001E0010003EB010002F6010061
:101FDA0005010200060C020002170200022202009A
:101FEA00022D02000338020004430200044E0200DC
:101FFA000459020004640200056F0200047A020018
:10200A000485020004900200049B020004A6020058
:10201A0002B1020002BC020006C7020006D2020098
:10202A0006DD020004E8020007F3020006FE0200D1
:10203A000509030006140300061F0300052A03000E
:10204A000535030006400300064B03000356030050
:10205A0003610300056C0300047703000782030091
:10206A00068D03000798030005A3030007AE0300CB
:10207A0005B9030005C4030005CF030006DA03000F
:10208A0006E5030007F0030004FB0300050604004D
:10209A0004110400021C0400032704000232040095
:1020AA00053D04000548040003530400045E0400CF
:1020BA000469040003740400047F0400048A040011
:1020CA000395040004A0040004AB040001B6040054
:1020DA0002C1040004CC040001D7040007E2040092
:1020EA0004ED040004F8040004030500040E0500CE
:1020FA000319050003240500022F0500043A050010
:10210A000545050007500500035B05000566050047
:10211A0003710500037C0500028705000392050090
:10212A00069D050002A8050000000000000000004E
:10213A00000000000001010101010001000000058A
:10214A00050500000000000000000024247E143F62
:10215A00121200000000041E05060C140F040400ED
:10216A00000000460029002900D60028012801C4E1
:10217A0000000000000000060909160919260000DF
:10218A00000101010000000000000000040201013A
:10219A00010101010204000001020202020202011D
:1021AA000004150E150400000000000000000008DD
:1021BA00083E0808000000000000000000000202BB
:1021CA000100000000000000030000000000000001
:1021DA0000000000020200000004040202020202DF
:1021EA0001010000000609090909090600000000AA
:1021FA000406040404040E00000000070808040290
:10220A00010F000000000708080608080700000080
:10221A0000080C0A091F0808000000000F01010746
:10222A000808070000000006010107090906000066
:10223A0000000F0804040202010000000006090958
:10224A0006090906000000000609090E080806002A
:10225A00000000000002020002020000000000006C
:10226A000202000202010000000000201C021C20E1
:10227A00000000000000003F003F000000000000D6
:10228A0000021C201C0200000000070808040200CB
:10229A0002000000001C2259555539021C0000009A
:1022AA000C0C12123F2121000000000709090F112E
:1022BA00110F000000001C22010101221C00000075
:1022CA00000F11212121110F000000001F01010F31
:1022DA0001011F000000001F01010F0101010000A0
:1022EA0000001C22013921223C000000002121218A
:1022FA003F2121210000000007020202020207001A
:10230A00000000060404040404030000000011098C
:10231A000503050911000000000101010101010F77
:10232A00000000006363555549494100000000213F
:10233A00232529312121000000001C22414141228C
:10234A001C000000000F1111110F01010000000014
:10235A001C22414141221C106000000F11110F057F
:10236A000911000000001E01010E10100F000000EC
:10237A00001F040404040404000000002121212198
:10238A0021211E0000000021212112120C0C000044
:10239A000000494955555522220000000009090646
:1023AA000606090900000000110A0A0404040400D0
:1023BA000000000F08040202010F000000030101DF
:1023CA0001010101010103000101020202020204EA
:1023DA0004000003020202020202020203000004D5
:1023EA000A110000000000000000000000000000C8
:1023FA0000001F00020400000000000000000000AE
:10240A00000006080E090E00000001010107090973
:10241A000907000000000000060101010600000093
:10242A000808080E0909090E000000000000060944
:10243A000F010E0000000601010701010101000061
:10244A00000000000E0909090E0806000101010733
:10245A000909090900000000010001010101010048
:10246A00000000020003020202020201000101014F
:10247A00090503050900000001010101010101012B
:10248A0000000000000037494949490000000000E7
:10249A0000070909090900000000000006090909E6
:1024AA0006000000000000070909090701010000F1
:1024BA0000000E0909090E080800000000050301C2
:1024CA0001010000000000000701020407000000EB
:1024DA0000000103010101020000000000000909D7
:1024EA0009090E000000000000110A0A0A0400008F
:1024FA00000000004949553622000000000000058E
:10250A0002020205000000000000110A0A0A04047F
:10251A000200000000070402010700000004020292
:10252A000202010202020400020202020202020282
:10253A000202000102020202040202020100000079
:10254A000000261900000000000000030303030333
:03255A000000007E
:10255D00000000000000000000000000000000006E
:10256D00000000000000000000000000000000005E
:10257D00000000000000000000000000000000004E
:10258D00008080C0C06060203030301010101010FE
:10259D0010101010303020206060C0C0808000000E
:1025AD00000000000000000000000000000000001E
:1025BD00000000000000000000000000000000000E
:1025CD0000000000000000000000000000000000FE
:1025DD0000000000000000000000000000000000EE
:1025ED0000000000000000000000000000000000DE
:1025FD000000000000000080C0E07030381C0E07A5
:10260D0003010100000000000000000000000000B8
:10261D000000000000000000000000000103070E94
:10262D000E1C3870E0C080000000000000000000AB
:10263D00000000000000000000000000000000008D
:10264D00000000000000000000000000000000007D
:10265D00000000000000000000000000000000006D
:10266D00000000000000000000000000000080C01D
:10267D00E07038180C0E070301000008080C3CFE32
:10268D00FEDC8C08080000000008080C0C3E7EFEE5
:10269D00DC8C0808000000000808080C0C7EFEEE1B
:1026AD008C8C080800010103070E1C3870E0C080F7
:1026BD00800000000000000000000000000000008D
:1026CD0000000000000000000000000000000000FD
:1026DD0000000000000000000000000000000000ED
:1026ED00000000008080C0E070381C0E060303015E
:1026FD0000000000000000000000000000000000CD
:10270D0000010103CEFEFC000000000000000000EF
:10271D00010383CFFEFC000000000000000000005C
:10272D00010387FEFC3800000000000000000101DD
:10273D0003070E1C383060E0C08000000000000070
:10274D00000000000000000000000000000000007C
:10275D000000000000000000000000000000E0F09C
:10276D00781C0E07030100000000000000000000AF
:10277D00000000000000000000000080E0F0781C68
:10278D000C06070303010000000000E0F0381C0CEC
:10279D0006070303010000000000E0F078180C0E9E
:1027AD00070303010000000000000000000000000E
:1027BD0000000000000000000103070E1C78F0E08F
:1027CD0000000000000000000000000000000000FC
:1027DD000000000000000000000000000000070FD6
:1027ED001E383020606040C0C08080808080808036
:1027FD00808080808080808080808081878F9EB85F
:10280D00B0A0808080808080808080878F9EB8B0CF
:10281D00A0A0808080808080808083878F9CB8B0CE
:10282D00808080808080808080808080808080809B
:10283D00808080808080C0C040606030381C0F0771
:10284D00000000000000000000000000000000007B
:10285D00000000000000000000000000000000006B
:10286D00000000000000000000000000000000005B
:10287D000121313119F9F9F9F90101010101191993
:10288D0009098999D9F9F17101010121313131F923
:10289D00F9F9F901013979494949497931010101BB
:1028AD00E1F1F17139191909090909091901010133
:1028BD00010000000000000000000000000000000A
:1028CD0000000000000000000000000000000000FB
:1028DD0000000000000000000000000000000000EB
:1028ED0000000000000000000000000000000000DB
:1028FD00000000000007070707000000000406069F
:10290D000707070505040404040000000000000784
:10291D000707070000000000000000000000000095
:10292D0001030707060404040C040404040000005A
:10293D00000000000000000000000000000000008A
:10294D00000000000000000000000000000000007A
:10295D00000000000000005F0000000700070014E9
:10296D007F147F14242A7F2A1223130864623649A8
:10297D005522500005030000001C22410000412299
:10298D001C00082A1C2A0808083E080800503000C0
:10299D000008080808080030300000201008040264
:1029AD003E5149453E00427F40004261514946211A
:1029BD0041454B311814127F1027454545393C4A86
:1029CD0049493001710905033649494936064949D6
:1029DD00291E00363600000056360000000814226D
:1029ED004114141414144122140800020151090653
:1029FD00324979413E7E1111117E7F494949363E5A
:102A0D00414141227F4141221C7F494949417F0972
:102A1D000901013E414151327F0808087F00417F85
:102A2D0041002040413F017F081422417F4040403A
:102A3D00407F0204027F7F0408107F3E4141413EEA
:102A4D007F090909063E4151215E7F091929464634
:102A5D004949493101017F01013F4040403F1F205D
:102A6D0040201F7F2018207F63140814630304780F
:102A7D000403615149454300007F414102040810A0
:102A8D002041417F000004020102044040404040CB
:102A9D00000102040020545454787F4844443838CF
:102AAD0044444420384444487F3854545418087ED4
:102ABD00090102081454543C7F0804047800447D35
:102ACD0040002040443D00007F10284400417F40DD
:102ADD00007C041804787C08040478384444443895
:102AED007C14141408081414187C7C080404084879
:102AFD0054545420043F4440203C4040207C1C2032
:102B0D0040201C3C4030403C44281028440C505080
:102B1D00503C4464544C44000836410000007F0092
:102B2D0000004136080008082A1C08081C2A08085D
:022B3D006F0027
:072B3F0045535045524500CB
:072B460036302073656700C3
:102B4D0045544150413A2046415345204445534355
:052B5D00415247410058
:102B620054454D504552415455524120454E202026
:022B720043001E
:102B740054454D504552415455524120454E202014
:022B840043000C
:0F2B8600524554495245204F424A45544F53003F
:0A2B9500202020204445204C410080
:0D2B9F00202043414E415354494C4C41000D
:102BAC0020434F4C4F434152204D415445524941D3
:042BBC004C45530031
:0D2BC00020202020202044454E54524F007C
:0A2BCD0044455354494C4144410073
:022BD7000000FC
:102BD90054454D504552415455524120454E2020AF
:022BE9004300A7
:022BEB006F0079
:102BED0045544150413A204553544552494C495A58
:062BFD004143494F4E0068
:102C030020204445204C412043414E415354494CDC
:032C13004C410031
:102C16002E2E2E7920636572726172206C6120708F
:062C260075657274610087
:0F2C2C0045544150413A205055524741444F00C2
:022C3B006F0028
:042C3D004E614E0096
:022C4100300061
:042C4300494E4600B0
:102C47005449454D504F2052455354414E54450029
:0B2C5700202020202020204D494E00AE
:012C62000071
:072C6300202041475541000C
:0C2C6A00423A204C69717569646F730078
:0F2C7600433A205175697275726769636F730015
:102C8500202053454C4543494F4E45204D41544521
:052C95005249414C0012
:102C9A00413A204465736361727461626C657300C2
:102CAA0041425249454E444F2050554552544100E5
:0A2CBA004147524547414E444F0088
:102CC40043455252414E444F2050554552544100C1
:020000040030CA
:0E000000000C1F1EFF8381FF0FC00FE00F409A
:00000001FF
